:101DC00001C014C1112484B7882379F0982F9A7028
:101DD000923059F081FF03C094B7977F94BF282EAB
:101DE00080E0F1D0E6E0FF2709948EE0ECD0BC9AC9
:101DF00023E0D22ECC24C39435E0932E42EEE42E81
:101E00004EE0F42E8F2D806C882EC9D0813479F469
:101E1000C6D0182FDCD0123811F480E004C08BE358
:101E2000113809F083E0ACD080E1AAD0EECF823443
:101E300019F484E1D4D0F8CF853411F485E0FACFD9
:101E4000853541F4ACD0C82FAAD0D82FCC0FDD1FD8
:101E5000BED0EACF863519F484E0C1D0DECF843617
:101E600009F056C09CD09BD0782E99D0682E00E601
:101E700010E080E6582E570C58010F5F1F4F8FD08F
:101E8000F50180835012F8CFA2D02097F9F49091F9
:101E900060009093E400809161008093E500E092FF
:101EA00060008092610040916C004093E600409198
:101EB0006D004093E700292F382F265031092093D9
:101EC0006C00832F8F70806C80936D00F5E46F122F
:101ED00001C0FFCFFE01D7BEE89507B600FCFDCFDD
:101EE00090E080E0FC01EC0FFD1FDC01A05ABF4F29
:101EF0002D913C910901C7BEE895112402967812F4
:101F0000F1CFFE0197BEE89507B600FCFDCF8CCF60
:101F1000843739F544D043D0B82E41D058D08E0103
:101F2000BC0E0115110541F48091E40029D00F5F2A
:101F30001F4FB012F6CF78CF0130110519F4809100
:101F4000E500F4CF0C30110519F48091E600EECFD6
:101F50000D30110519F48091E700E8CFF801849164
:101F6000E5CF853739F433D08EE10AD083E908D044
:101F70008BE059CF813509F06BCF88E024D068CF52
:101F80002AE030E08095089410F4C49802C0C49A06
:101F9000000015D014D086952A95B1F70895A8951C
:101FA00029E030E0B299FECF0AD009D008D0889459
:101FB000B29908942A9511F08795F7CF089592E485
:101FC0009A95F1F7089598E191BD81BD0895E7DFF5
:101FD000803219F088E0F7DFFFCF84E1D1CFCF93D3
:101FE000C82FDDDFC150E9F7CF91F1CFFC010A0125
:0E1FF00067BFE895112407B600FCFDCF0895E9
:021FFE00003BA6
:0400000300001DC01C
:00000001FF
